{
  "_format": "hh-sol-artifact-1",
  "contractName": "RoboPunksNFT",
  "sourceName": "contracts/RoboPunksNFT.sol",
  "abi": [
    {
      "inputs": [],
      "stateMutability": "payable",
      "type": "constructor"
    },
    {
      "anonymous": false,
      "inputs": [
        {
          "indexed": true,
          "internalType": "address",
          "name": "owner",
          "type": "address"
        },
        {
          "indexed": true,
          "internalType": "address",
          "name": "approved",
          "type": "address"
        },
        {
          "indexed": true,
          "internalType": "uint256",
          "name": "tokenId",
          "type": "uint256"
        }
      ],
      "name": "Approval",
      "type": "event"
    },
    {
      "anonymous": false,
      "inputs": [
        {
          "indexed": true,
          "internalType": "address",
          "name": "owner",
          "type": "address"
        },
        {
          "indexed": true,
          "internalType": "address",
          "name": "operator",
          "type": "address"
        },
        {
          "indexed": false,
          "internalType": "bool",
          "name": "approved",
          "type": "bool"
        }
      ],
      "name": "ApprovalForAll",
      "type": "event"
    },
    {
      "anonymous": false,
      "inputs": [
        {
          "indexed": true,
          "internalType": "address",
          "name": "previousOwner",
          "type": "address"
        },
        {
          "indexed": true,
          "internalType": "address",
          "name": "newOwner",
          "type": "address"
        }
      ],
      "name": "OwnershipTransferred",
      "type": "event"
    },
    {
      "anonymous": false,
      "inputs": [
        {
          "indexed": true,
          "internalType": "address",
          "name": "from",
          "type": "address"
        },
        {
          "indexed": true,
          "internalType": "address",
          "name": "to",
          "type": "address"
        },
        {
          "indexed": true,
          "internalType": "uint256",
          "name": "tokenId",
          "type": "uint256"
        }
      ],
      "name": "Transfer",
      "type": "event"
    },
    {
      "inputs": [
        {
          "internalType": "address",
          "name": "to",
          "type": "address"
        },
        {
          "internalType": "uint256",
          "name": "tokenId",
          "type": "uint256"
        }
      ],
      "name": "approve",
      "outputs": [],
      "stateMutability": "nonpayable",
      "type": "function"
    },
    {
      "inputs": [
        {
          "internalType": "address",
          "name": "owner",
          "type": "address"
        }
      ],
      "name": "balanceOf",
      "outputs": [
        {
          "internalType": "uint256",
          "name": "",
          "type": "uint256"
        }
      ],
      "stateMutability": "view",
      "type": "function"
    },
    {
      "inputs": [
        {
          "internalType": "uint256",
          "name": "tokenId",
          "type": "uint256"
        }
      ],
      "name": "getApproved",
      "outputs": [
        {
          "internalType": "address",
          "name": "",
          "type": "address"
        }
      ],
      "stateMutability": "view",
      "type": "function"
    },
    {
      "inputs": [
        {
          "internalType": "address",
          "name": "owner",
          "type": "address"
        },
        {
          "internalType": "address",
          "name": "operator",
          "type": "address"
        }
      ],
      "name": "isApprovedForAll",
      "outputs": [
        {
          "internalType": "bool",
          "name": "",
          "type": "bool"
        }
      ],
      "stateMutability": "view",
      "type": "function"
    },
    {
      "inputs": [],
      "name": "isPublicMintEnabled",
      "outputs": [
        {
          "internalType": "bool",
          "name": "",
          "type": "bool"
        }
      ],
      "stateMutability": "view",
      "type": "function"
    },
    {
      "inputs": [],
      "name": "maxPerWallet",
      "outputs": [
        {
          "internalType": "uint256",
          "name": "",
          "type": "uint256"
        }
      ],
      "stateMutability": "view",
      "type": "function"
    },
    {
      "inputs": [],
      "name": "maxSupply",
      "outputs": [
        {
          "internalType": "uint256",
          "name": "",
          "type": "uint256"
        }
      ],
      "stateMutability": "view",
      "type": "function"
    },
    {
      "inputs": [
        {
          "internalType": "uint256",
          "name": "quantity_",
          "type": "uint256"
        }
      ],
      "name": "mint",
      "outputs": [],
      "stateMutability": "payable",
      "type": "function"
    },
    {
      "inputs": [],
      "name": "mintPrice",
      "outputs": [
        {
          "internalType": "uint256",
          "name": "",
          "type": "uint256"
        }
      ],
      "stateMutability": "view",
      "type": "function"
    },
    {
      "inputs": [],
      "name": "name",
      "outputs": [
        {
          "internalType": "string",
          "name": "",
          "type": "string"
        }
      ],
      "stateMutability": "view",
      "type": "function"
    },
    {
      "inputs": [],
      "name": "owner",
      "outputs": [
        {
          "internalType": "address",
          "name": "",
          "type": "address"
        }
      ],
      "stateMutability": "view",
      "type": "function"
    },
    {
      "inputs": [
        {
          "internalType": "uint256",
          "name": "tokenId",
          "type": "uint256"
        }
      ],
      "name": "ownerOf",
      "outputs": [
        {
          "internalType": "address",
          "name": "",
          "type": "address"
        }
      ],
      "stateMutability": "view",
      "type": "function"
    },
    {
      "inputs": [],
      "name": "renounceOwnership",
      "outputs": [],
      "stateMutability": "nonpayable",
      "type": "function"
    },
    {
      "inputs": [
        {
          "internalType": "address",
          "name": "from",
          "type": "address"
        },
        {
          "internalType": "address",
          "name": "to",
          "type": "address"
        },
        {
          "internalType": "uint256",
          "name": "tokenId",
          "type": "uint256"
        }
      ],
      "name": "safeTransferFrom",
      "outputs": [],
      "stateMutability": "nonpayable",
      "type": "function"
    },
    {
      "inputs": [
        {
          "internalType": "address",
          "name": "from",
          "type": "address"
        },
        {
          "internalType": "address",
          "name": "to",
          "type": "address"
        },
        {
          "internalType": "uint256",
          "name": "tokenId",
          "type": "uint256"
        },
        {
          "internalType": "bytes",
          "name": "data",
          "type": "bytes"
        }
      ],
      "name": "safeTransferFrom",
      "outputs": [],
      "stateMutability": "nonpayable",
      "type": "function"
    },
    {
      "inputs": [
        {
          "internalType": "address",
          "name": "operator",
          "type": "address"
        },
        {
          "internalType": "bool",
          "name": "approved",
          "type": "bool"
        }
      ],
      "name": "setApprovalForAll",
      "outputs": [],
      "stateMutability": "nonpayable",
      "type": "function"
    },
    {
      "inputs": [
        {
          "internalType": "string",
          "name": "baseTokenUri_",
          "type": "string"
        }
      ],
      "name": "setBaseTokenURI",
      "outputs": [],
      "stateMutability": "nonpayable",
      "type": "function"
    },
    {
      "inputs": [
        {
          "internalType": "bool",
          "name": "isPublicMintEnabled_",
          "type": "bool"
        }
      ],
      "name": "setIsPublicMintEnabled",
      "outputs": [],
      "stateMutability": "nonpayable",
      "type": "function"
    },
    {
      "inputs": [
        {
          "internalType": "bytes4",
          "name": "interfaceId",
          "type": "bytes4"
        }
      ],
      "name": "supportsInterface",
      "outputs": [
        {
          "internalType": "bool",
          "name": "",
          "type": "bool"
        }
      ],
      "stateMutability": "view",
      "type": "function"
    },
    {
      "inputs": [],
      "name": "symbol",
      "outputs": [
        {
          "internalType": "string",
          "name": "",
          "type": "string"
        }
      ],
      "stateMutability": "view",
      "type": "function"
    },
    {
      "inputs": [
        {
          "internalType": "uint256",
          "name": "tokenId_",
          "type": "uint256"
        }
      ],
      "name": "tokenURI",
      "outputs": [
        {
          "internalType": "string",
          "name": "",
          "type": "string"
        }
      ],
      "stateMutability": "view",
      "type": "function"
    },
    {
      "inputs": [],
      "name": "totalSupply",
      "outputs": [
        {
          "internalType": "uint256",
          "name": "",
          "type": "uint256"
        }
      ],
      "stateMutability": "view",
      "type": "function"
    },
    {
      "inputs": [
        {
          "internalType": "address",
          "name": "from",
          "type": "address"
        },
        {
          "internalType": "address",
          "name": "to",
          "type": "address"
        },
        {
          "internalType": "uint256",
          "name": "tokenId",
          "type": "uint256"
        }
      ],
      "name": "transferFrom",
      "outputs": [],
      "stateMutability": "nonpayable",
      "type": "function"
    },
    {
      "inputs": [
        {
          "internalType": "address",
          "name": "newOwner",
          "type": "address"
        }
      ],
      "name": "transferOwnership",
      "outputs": [],
      "stateMutability": "nonpayable",
      "type": "function"
    },
    {
      "inputs": [
        {
          "internalType": "address",
          "name": "",
          "type": "address"
        }
      ],
      "name": "walletMints",
      "outputs": [
        {
          "internalType": "uint256",
          "name": "",
          "type": "uint256"
        }
      ],
      "stateMutability": "view",
      "type": "function"
    },
    {
      "inputs": [],
      "name": "withdrawWallet",
      "outputs": [
        {
          "internalType": "address payable",
          "name": "",
          "type": "address"
        }
      ],
      "stateMutability": "view",
      "type": "function"
    },
    {
      "inputs": [],
      "name": "withdrawl",
      "outputs": [],
      "stateMutability": "nonpayable",
      "type": "function"
    }
  ],
  "bytecode": "0x60806040526040518060400160405280600981526020017f526f626f50756e6b7300000000000000000000000000000000000000000000008152506040518060400160405280600281526020017f525000000000000000000000000000000000000000000000000000000000000081525081600090816200008191906200042b565b5080600190816200009391906200042b565b505050620000b6620000aa620000e360201b60201c565b620000eb60201b60201c565b66470de4df82000060078190555060006008819055506103e86009819055506003600a8190555062000512565b600033905090565b6000600660009054906101000a900473ffffffffffffffffffffffffffffffffffffffff16905081600660006101000a81548173ffffffffffffffffffffffffffffffffffffffff021916908373ffffffffffffffffffffffffffffffffffffffff1602179055508173ffffffffffffffffffffffffffffffffffffffff168173ffffffffffffffffffffffffffffffffffffffff167f8be0079c531659141344cd1fd0a4f28419497f9722a3daafe3b4186f6b6457e060405160405180910390a35050565b600081519050919050565b7f4e487b7100000000000000000000000000000000000000000000000000000000600052604160045260246000fd5b7f4e487b7100000000000000000000000000000000000000000000000000000000600052602260045260246000fd5b600060028204905060018216806200023357607f821691505b602082108103620002495762000248620001eb565b5b50919050565b60008190508160005260206000209050919050565b60006020601f8301049050919050565b600082821b905092915050565b600060088302620002b37fffffffffffffffffffffffffffffffffffffffffffffffffffffffffffffffff8262000274565b620002bf868362000274565b95508019841693508086168417925050509392505050565b6000819050919050565b6000819050919050565b60006200030c620003066200030084620002d7565b620002e1565b620002d7565b9050919050565b6000819050919050565b6200032883620002eb565b62000340620003378262000313565b84845462000281565b825550505050565b600090565b6200035762000348565b620003648184846200031d565b505050565b5b818110156200038c57620003806000826200034d565b6001810190506200036a565b5050565b601f821115620003db57620003a5816200024f565b620003b08462000264565b81016020851015620003c0578190505b620003d8620003cf8562000264565b83018262000369565b50505b505050565b600082821c905092915050565b60006200040060001984600802620003e0565b1980831691505092915050565b60006200041b8383620003ed565b9150826002028217905092915050565b6200043682620001b1565b67ffffffffffffffff811115620004525762000451620001bc565b5b6200045e82546200021a565b6200046b82828562000390565b600060209050601f831160018114620004a357600084156200048e578287015190505b6200049a85826200040d565b8655506200050a565b601f198416620004b3866200024f565b60005b82811015620004dd57848901518255600182019150602085019450602081019050620004b6565b86831015620004fd5784890151620004f9601f891682620003ed565b8355505b6001600288020188555050505b505050505050565b61364880620005226000396000f3fe60806040526004361061019c5760003560e01c80636817c76c116100ec578063a22cb4651161008a578063d5abeb0111610064578063d5abeb0114610593578063e985e9c5146105be578063f0293fd3146105fb578063f2fde38b146106385761019c565b8063a22cb46514610504578063b88d4fde1461052d578063c87b56dd146105565761019c565b806385d178f4116100c657806385d178f4146104675780638da5cb5b1461049257806395d89b41146104bd578063a0712d68146104e85761019c565b80636817c76c146103e857806370a0823114610413578063715018a6146104505761019c565b80632373ac22116101595780633aedfb8b116101335780633aedfb8b1461034057806342842e0e14610357578063453c2310146103805780636352211e146103ab5761019c565b80632373ac22146102c557806323b872dd146102ee57806330176e13146103175761019c565b80630116bc2d146101a157806301ffc9a7146101cc57806306fdde0314610209578063081812fc14610234578063095ea7b31461027157806318160ddd1461029a575b600080fd5b3480156101ad57600080fd5b506101b6610661565b6040516101c39190611ebb565b60405180910390f35b3480156101d857600080fd5b506101f360048036038101906101ee9190611f42565b610674565b6040516102009190611ebb565b60405180910390f35b34801561021557600080fd5b5061021e610756565b60405161022b9190612008565b60405180910390f35b34801561024057600080fd5b5061025b60048036038101906102569190612060565b6107e8565b60405161026891906120ce565b60405180910390f35b34801561027d57600080fd5b5061029860048036038101906102939190612115565b61082e565b005b3480156102a657600080fd5b506102af610945565b6040516102bc9190612164565b60405180910390f35b3480156102d157600080fd5b506102ec60048036038101906102e791906121ab565b61094b565b005b3480156102fa57600080fd5b50610315600480360381019061031091906121d8565b610970565b005b34801561032357600080fd5b5061033e60048036038101906103399190612290565b6109d0565b005b34801561034c57600080fd5b506103556109ee565b005b34801561036357600080fd5b5061037e600480360381019061037991906121d8565b610ac7565b005b34801561038c57600080fd5b50610395610ae7565b6040516103a29190612164565b60405180910390f35b3480156103b757600080fd5b506103d260048036038101906103cd9190612060565b610aed565b6040516103df91906120ce565b60405180910390f35b3480156103f457600080fd5b506103fd610b9e565b60405161040a9190612164565b60405180910390f35b34801561041f57600080fd5b5061043a600480360381019061043591906122dd565b610ba4565b6040516104479190612164565b60405180910390f35b34801561045c57600080fd5b50610465610c5b565b005b34801561047357600080fd5b5061047c610c6f565b604051610489919061232b565b60405180910390f35b34801561049e57600080fd5b506104a7610c95565b6040516104b491906120ce565b60405180910390f35b3480156104c957600080fd5b506104d2610cbf565b6040516104df9190612008565b60405180910390f35b61050260048036038101906104fd9190612060565b610d51565b005b34801561051057600080fd5b5061052b60048036038101906105269190612346565b610f28565b005b34801561053957600080fd5b50610554600480360381019061054f91906124b6565b610f3e565b005b34801561056257600080fd5b5061057d60048036038101906105789190612060565b610fa0565b60405161058a9190612008565b60405180910390f35b34801561059f57600080fd5b506105a861101c565b6040516105b59190612164565b60405180910390f35b3480156105ca57600080fd5b506105e560048036038101906105e09190612539565b611022565b6040516105f29190611ebb565b60405180910390f35b34801561060757600080fd5b50610622600480360381019061061d91906122dd565b6110b6565b60405161062f9190612164565b60405180910390f35b34801561064457600080fd5b5061065f600480360381019061065a91906122dd565b6110ce565b005b600b60009054906101000a900460ff1681565b60007f80ac58cd000000000000000000000000000000000000000000000000000000007bffffffffffffffffffffffffffffffffffffffffffffffffffffffff1916827bffffffffffffffffffffffffffffffffffffffffffffffffffffffff1916148061073f57507f5b5e139f000000000000000000000000000000000000000000000000000000007bffffffffffffffffffffffffffffffffffffffffffffffffffffffff1916827bffffffffffffffffffffffffffffffffffffffffffffffffffffffff1916145b8061074f575061074e82611151565b5b9050919050565b606060008054610765906125a8565b80601f0160208091040260200160405190810160405280929190818152602001828054610791906125a8565b80156107de5780601f106107b3576101008083540402835291602001916107de565b820191906000526020600020905b8154815290600101906020018083116107c157829003601f168201915b5050505050905090565b60006107f3826111bb565b6004600083815260200190815260200160002060009054906101000a900473ffffffffffffffffffffffffffffffffffffffff169050919050565b600061083982610aed565b90508073ffffffffffffffffffffffffffffffffffffffff168373ffffffffffffffffffffffffffffffffffffffff16036108a9576040517f08c379a00000000000000000000000000000000000000000000000000000000081526004016108a09061264b565b60405180910390fd5b8073ffffffffffffffffffffffffffffffffffffffff166108c8611206565b73ffffffffffffffffffffffffffffffffffffffff1614806108f757506108f6816108f1611206565b611022565b5b610936576040517f08c379a000000000000000000000000000000000000000000000000000000000815260040161092d906126dd565b60405180910390fd5b610940838361120e565b505050565b60085481565b6109536112c7565b80600b60006101000a81548160ff02191690831515021790555050565b61098161097b611206565b82611345565b6109c0576040517f08c379a00000000000000000000000000000000000000000000000000000000081526004016109b79061276f565b60405180910390fd5b6109cb8383836113da565b505050565b6109d86112c7565b8181600c91826109e9929190612946565b505050565b6109f66112c7565b6000600d60009054906101000a900473ffffffffffffffffffffffffffffffffffffffff1673ffffffffffffffffffffffffffffffffffffffff1647604051610a3e90612a47565b60006040518083038185875af1925050503d8060008114610a7b576040519150601f19603f3d011682016040523d82523d6000602084013e610a80565b606091505b5050905080610ac4576040517f08c379a0000000000000000000000000000000000000000000000000000000008152600401610abb90612aa8565b60405180910390fd5b50565b610ae283838360405180602001604052806000815250610f3e565b505050565b600a5481565b6000806002600084815260200190815260200160002060009054906101000a900473ffffffffffffffffffffffffffffffffffffffff169050600073ffffffffffffffffffffffffffffffffffffffff168173ffffffffffffffffffffffffffffffffffffffff1603610b95576040517f08c379a0000000000000000000000000000000000000000000000000000000008152600401610b8c90612b14565b60405180910390fd5b80915050919050565b60075481565b60008073ffffffffffffffffffffffffffffffffffffffff168273ffffffffffffffffffffffffffffffffffffffff1603610c14576040517f08c379a0000000000000000000000000000000000000000000000000000000008152600401610c0b90612ba6565b60405180910390fd5b600360008373ffffffffffffffffffffffffffffffffffffffff1673ffffffffffffffffffffffffffffffffffffffff168152602001908152602001600020549050919050565b610c636112c7565b610c6d6000611640565b565b600d60009054906101000a900473ffffffffffffffffffffffffffffffffffffffff1681565b6000600660009054906101000a900473ffffffffffffffffffffffffffffffffffffffff16905090565b606060018054610cce906125a8565b80601f0160208091040260200160405190810160405280929190818152602001828054610cfa906125a8565b8015610d475780601f10610d1c57610100808354040283529160200191610d47565b820191906000526020600020905b815481529060010190602001808311610d2a57829003601f168201915b5050505050905090565b600b60009054906101000a900460ff16610da0576040517f08c379a0000000000000000000000000000000000000000000000000000000008152600401610d9790612c12565b60405180910390fd5b60075481610dae9190612c61565b3414610def576040517f08c379a0000000000000000000000000000000000000000000000000000000008152600401610de690612d07565b60405180910390fd5b60095481600854610e009190612d27565b1115610e41576040517f08c379a0000000000000000000000000000000000000000000000000000000008152600401610e3890612dc9565b60405180910390fd5b600a5481600e60003373ffffffffffffffffffffffffffffffffffffffff1673ffffffffffffffffffffffffffffffffffffffff16815260200190815260200160002054610e8f9190612d27565b1115610ed0576040517f08c379a0000000000000000000000000000000000000000000000000000000008152600401610ec790612e35565b60405180910390fd5b60005b81811015610f245760006001600854610eec9190612d27565b905060086000815480929190610f0190612e55565b9190505550610f103382611706565b508080610f1c90612e55565b915050610ed3565b5050565b610f3a610f33611206565b8383611724565b5050565b610f4f610f49611206565b83611345565b610f8e576040517f08c379a0000000000000000000000000000000000000000000000000000000008152600401610f859061276f565b60405180910390fd5b610f9a84848484611890565b50505050565b6060610fab826118ec565b610fea576040517f08c379a0000000000000000000000000000000000000000000000000000000008152600401610fe190612ee9565b60405180910390fd5b600c610ff583611958565b604051602001611006929190613014565b6040516020818303038152906040529050919050565b60095481565b6000600560008473ffffffffffffffffffffffffffffffffffffffff1673ffffffffffffffffffffffffffffffffffffffff16815260200190815260200160002060008373ffffffffffffffffffffffffffffffffffffffff1673ffffffffffffffffffffffffffffffffffffffff16815260200190815260200160002060009054906101000a900460ff16905092915050565b600e6020528060005260406000206000915090505481565b6110d66112c7565b600073ffffffffffffffffffffffffffffffffffffffff168173ffffffffffffffffffffffffffffffffffffffff1603611145576040517f08c379a000000000000000000000000000000000000000000000000000000000815260040161113c906130b5565b60405180910390fd5b61114e81611640565b50565b60007f01ffc9a7000000000000000000000000000000000000000000000000000000007bffffffffffffffffffffffffffffffffffffffffffffffffffffffff1916827bffffffffffffffffffffffffffffffffffffffffffffffffffffffff1916149050919050565b6111c4816118ec565b611203576040517f08c379a00000000000000000000000000000000000000000000000000000000081526004016111fa90612b14565b60405180910390fd5b50565b600033905090565b816004600083815260200190815260200160002060006101000a81548173ffffffffffffffffffffffffffffffffffffffff021916908373ffffffffffffffffffffffffffffffffffffffff160217905550808273ffffffffffffffffffffffffffffffffffffffff1661128183610aed565b73ffffffffffffffffffffffffffffffffffffffff167f8c5be1e5ebec7d5bd14f71427d1e84f3dd0314c0f7b2291e5b200ac8c7c3b92560405160405180910390a45050565b6112cf611206565b73ffffffffffffffffffffffffffffffffffffffff166112ed610c95565b73ffffffffffffffffffffffffffffffffffffffff1614611343576040517f08c379a000000000000000000000000000000000000000000000000000000000815260040161133a90613121565b60405180910390fd5b565b60008061135183610aed565b90508073ffffffffffffffffffffffffffffffffffffffff168473ffffffffffffffffffffffffffffffffffffffff16148061139357506113928185611022565b5b806113d157508373ffffffffffffffffffffffffffffffffffffffff166113b9846107e8565b73ffffffffffffffffffffffffffffffffffffffff16145b91505092915050565b8273ffffffffffffffffffffffffffffffffffffffff166113fa82610aed565b73ffffffffffffffffffffffffffffffffffffffff1614611450576040517f08c379a0000000000000000000000000000000000000000000000000000000008152600401611447906131b3565b60405180910390fd5b600073ffffffffffffffffffffffffffffffffffffffff168273ffffffffffffffffffffffffffffffffffffffff16036114bf576040517f08c379a00000000000000000000000000000000000000000000000000000000081526004016114b690613245565b60405180910390fd5b6114ca838383611ab8565b6114d560008261120e565b6001600360008573ffffffffffffffffffffffffffffffffffffffff1673ffffffffffffffffffffffffffffffffffffffff16815260200190815260200160002060008282546115259190613265565b925050819055506001600360008473ffffffffffffffffffffffffffffffffffffffff1673ffffffffffffffffffffffffffffffffffffffff168152602001908152602001600020600082825461157c9190612d27565b92505081905550816002600083815260200190815260200160002060006101000a81548173ffffffffffffffffffffffffffffffffffffffff021916908373ffffffffffffffffffffffffffffffffffffffff160217905550808273ffffffffffffffffffffffffffffffffffffffff168473ffffffffffffffffffffffffffffffffffffffff167fddf252ad1be2c89b69c2b068fc378daa952ba7f163c4a11628f55a4df523b3ef60405160405180910390a461163b838383611abd565b505050565b6000600660009054906101000a900473ffffffffffffffffffffffffffffffffffffffff16905081600660006101000a81548173ffffffffffffffffffffffffffffffffffffffff021916908373ffffffffffffffffffffffffffffffffffffffff1602179055508173ffffffffffffffffffffffffffffffffffffffff168173ffffffffffffffffffffffffffffffffffffffff167f8be0079c531659141344cd1fd0a4f28419497f9722a3daafe3b4186f6b6457e060405160405180910390a35050565b611720828260405180602001604052806000815250611ac2565b5050565b8173ffffffffffffffffffffffffffffffffffffffff168373ffffffffffffffffffffffffffffffffffffffff1603611792576040517f08c379a0000000000000000000000000000000000000000000000000000000008152600401611789906132e5565b60405180910390fd5b80600560008573ffffffffffffffffffffffffffffffffffffffff1673ffffffffffffffffffffffffffffffffffffffff16815260200190815260200160002060008473ffffffffffffffffffffffffffffffffffffffff1673ffffffffffffffffffffffffffffffffffffffff16815260200190815260200160002060006101000a81548160ff0219169083151502179055508173ffffffffffffffffffffffffffffffffffffffff168373ffffffffffffffffffffffffffffffffffffffff167f17307eab39ab6107e8899845ad3d59bd9653f200f220920489ca2b5937696c31836040516118839190611ebb565b60405180910390a3505050565b61189b8484846113da565b6118a784848484611b1d565b6118e6576040517f08c379a00000000000000000000000000000000000000000000000000000000081526004016118dd90613377565b60405180910390fd5b50505050565b60008073ffffffffffffffffffffffffffffffffffffffff166002600084815260200190815260200160002060009054906101000a900473ffffffffffffffffffffffffffffffffffffffff1673ffffffffffffffffffffffffffffffffffffffff1614159050919050565b60606000820361199f576040518060400160405280600181526020017f30000000000000000000000000000000000000000000000000000000000000008152509050611ab3565b600082905060005b600082146119d15780806119ba90612e55565b915050600a826119ca91906133c6565b91506119a7565b60008167ffffffffffffffff8111156119ed576119ec61238b565b5b6040519080825280601f01601f191660200182016040528015611a1f5781602001600182028036833780820191505090505b5090505b60008514611aac57600182611a389190613265565b9150600a85611a4791906133f7565b6030611a539190612d27565b60f81b818381518110611a6957611a68613428565b5b60200101907effffffffffffffffffffffffffffffffffffffffffffffffffffffffffffff1916908160001a905350600a85611aa591906133c6565b9450611a23565b8093505050505b919050565b505050565b505050565b611acc8383611ca4565b611ad96000848484611b1d565b611b18576040517f08c379a0000000000000000000000000000000000000000000000000000000008152600401611b0f90613377565b60405180910390fd5b505050565b6000611b3e8473ffffffffffffffffffffffffffffffffffffffff16611e7d565b15611c97578373ffffffffffffffffffffffffffffffffffffffff1663150b7a02611b67611206565b8786866040518563ffffffff1660e01b8152600401611b8994939291906134ac565b6020604051808303816000875af1925050508015611bc557506040513d601f19601f82011682018060405250810190611bc2919061350d565b60015b611c47573d8060008114611bf5576040519150601f19603f3d011682016040523d82523d6000602084013e611bfa565b606091505b506000815103611c3f576040517f08c379a0000000000000000000000000000000000000000000000000000000008152600401611c3690613377565b60405180910390fd5b805181602001fd5b63150b7a0260e01b7bffffffffffffffffffffffffffffffffffffffffffffffffffffffff1916817bffffffffffffffffffffffffffffffffffffffffffffffffffffffff191614915050611c9c565b600190505b949350505050565b600073ffffffffffffffffffffffffffffffffffffffff168273ffffffffffffffffffffffffffffffffffffffff1603611d13576040517f08c379a0000000000000000000000000000000000000000000000000000000008152600401611d0a90613586565b60405180910390fd5b611d1c816118ec565b15611d5c576040517f08c379a0000000000000000000000000000000000000000000000000000000008152600401611d53906135f2565b60405180910390fd5b611d6860008383611ab8565b6001600360008473ffffffffffffffffffffffffffffffffffffffff1673ffffffffffffffffffffffffffffffffffffffff1681526020019081526020016000206000828254611db89190612d27565b92505081905550816002600083815260200190815260200160002060006101000a81548173ffffffffffffffffffffffffffffffffffffffff021916908373ffffffffffffffffffffffffffffffffffffffff160217905550808273ffffffffffffffffffffffffffffffffffffffff16600073ffffffffffffffffffffffffffffffffffffffff167fddf252ad1be2c89b69c2b068fc378daa952ba7f163c4a11628f55a4df523b3ef60405160405180910390a4611e7960008383611abd565b5050565b6000808273ffffffffffffffffffffffffffffffffffffffff163b119050919050565b60008115159050919050565b611eb581611ea0565b82525050565b6000602082019050611ed06000830184611eac565b92915050565b6000604051905090565b600080fd5b600080fd5b60007fffffffff0000000000000000000000000000000000000000000000000000000082169050919050565b611f1f81611eea565b8114611f2a57600080fd5b50565b600081359050611f3c81611f16565b92915050565b600060208284031215611f5857611f57611ee0565b5b6000611f6684828501611f2d565b91505092915050565b600081519050919050565b600082825260208201905092915050565b60005b83811015611fa9578082015181840152602081019050611f8e565b83811115611fb8576000848401525b50505050565b6000601f19601f8301169050919050565b6000611fda82611f6f565b611fe48185611f7a565b9350611ff4818560208601611f8b565b611ffd81611fbe565b840191505092915050565b600060208201905081810360008301526120228184611fcf565b905092915050565b6000819050919050565b61203d8161202a565b811461204857600080fd5b50565b60008135905061205a81612034565b92915050565b60006020828403121561207657612075611ee0565b5b60006120848482850161204b565b91505092915050565b600073ffffffffffffffffffffffffffffffffffffffff82169050919050565b60006120b88261208d565b9050919050565b6120c8816120ad565b82525050565b60006020820190506120e360008301846120bf565b92915050565b6120f2816120ad565b81146120fd57600080fd5b50565b60008135905061210f816120e9565b92915050565b6000806040838503121561212c5761212b611ee0565b5b600061213a85828601612100565b925050602061214b8582860161204b565b9150509250929050565b61215e8161202a565b82525050565b60006020820190506121796000830184612155565b92915050565b61218881611ea0565b811461219357600080fd5b50565b6000813590506121a58161217f565b92915050565b6000602082840312156121c1576121c0611ee0565b5b60006121cf84828501612196565b91505092915050565b6000806000606084860312156121f1576121f0611ee0565b5b60006121ff86828701612100565b935050602061221086828701612100565b92505060406122218682870161204b565b9150509250925092565b600080fd5b600080fd5b600080fd5b60008083601f8401126122505761224f61222b565b5b8235905067ffffffffffffffff81111561226d5761226c612230565b5b60208301915083600182028301111561228957612288612235565b5b9250929050565b600080602083850312156122a7576122a6611ee0565b5b600083013567ffffffffffffffff8111156122c5576122c4611ee5565b5b6122d18582860161223a565b92509250509250929050565b6000602082840312156122f3576122f2611ee0565b5b600061230184828501612100565b91505092915050565b60006123158261208d565b9050919050565b6123258161230a565b82525050565b6000602082019050612340600083018461231c565b92915050565b6000806040838503121561235d5761235c611ee0565b5b600061236b85828601612100565b925050602061237c85828601612196565b9150509250929050565b600080fd5b7f4e487b7100000000000000000000000000000000000000000000000000000000600052604160045260246000fd5b6123c382611fbe565b810181811067ffffffffffffffff821117156123e2576123e161238b565b5b80604052505050565b60006123f5611ed6565b905061240182826123ba565b919050565b600067ffffffffffffffff8211156124215761242061238b565b5b61242a82611fbe565b9050602081019050919050565b82818337600083830152505050565b600061245961245484612406565b6123eb565b90508281526020810184848401111561247557612474612386565b5b612480848285612437565b509392505050565b600082601f83011261249d5761249c61222b565b5b81356124ad848260208601612446565b91505092915050565b600080600080608085870312156124d0576124cf611ee0565b5b60006124de87828801612100565b94505060206124ef87828801612100565b93505060406125008782880161204b565b925050606085013567ffffffffffffffff81111561252157612520611ee5565b5b61252d87828801612488565b91505092959194509250565b600080604083850312156125505761254f611ee0565b5b600061255e85828601612100565b925050602061256f85828601612100565b9150509250929050565b7f4e487b7100000000000000000000000000000000000000000000000000000000600052602260045260246000fd5b600060028204905060018216806125c057607f821691505b6020821081036125d3576125d2612579565b5b50919050565b7f4552433732313a20617070726f76616c20746f2063757272656e74206f776e6560008201527f7200000000000000000000000000000000000000000000000000000000000000602082015250565b6000612635602183611f7a565b9150612640826125d9565b604082019050919050565b6000602082019050818103600083015261266481612628565b9050919050565b7f4552433732313a20617070726f76652063616c6c6572206973206e6f7420746f60008201527f6b656e206f776e6572206e6f7220617070726f76656420666f7220616c6c0000602082015250565b60006126c7603e83611f7a565b91506126d28261266b565b604082019050919050565b600060208201905081810360008301526126f6816126ba565b9050919050565b7f4552433732313a2063616c6c6572206973206e6f7420746f6b656e206f776e6560008201527f72206e6f7220617070726f766564000000000000000000000000000000000000602082015250565b6000612759602e83611f7a565b9150612764826126fd565b604082019050919050565b600060208201905081810360008301526127888161274c565b9050919050565b600082905092915050565b60008190508160005260206000209050919050565b60006020601f8301049050919050565b600082821b905092915050565b6000600883026127fc7fffffffffffffffffffffffffffffffffffffffffffffffffffffffffffffffff826127bf565b61280686836127bf565b95508019841693508086168417925050509392505050565b6000819050919050565b600061284361283e6128398461202a565b61281e565b61202a565b9050919050565b6000819050919050565b61285d83612828565b6128716128698261284a565b8484546127cc565b825550505050565b600090565b612886612879565b612891818484612854565b505050565b5b818110156128b5576128aa60008261287e565b600181019050612897565b5050565b601f8211156128fa576128cb8161279a565b6128d4846127af565b810160208510156128e3578190505b6128f76128ef856127af565b830182612896565b50505b505050565b600082821c905092915050565b600061291d600019846008026128ff565b1980831691505092915050565b6000612936838361290c565b9150826002028217905092915050565b612950838361278f565b67ffffffffffffffff8111156129695761296861238b565b5b61297382546125a8565b61297e8282856128b9565b6000601f8311600181146129ad576000841561299b578287013590505b6129a5858261292a565b865550612a0d565b601f1984166129bb8661279a565b60005b828110156129e3578489013582556001820191506020850194506020810190506129be565b86831015612a0057848901356129fc601f89168261290c565b8355505b6001600288020188555050505b50505050505050565b600081905092915050565b50565b6000612a31600083612a16565b9150612a3c82612a21565b600082019050919050565b6000612a5282612a24565b9150819050919050565b7f7769746864726177206661696c65640000000000000000000000000000000000600082015250565b6000612a92600f83611f7a565b9150612a9d82612a5c565b602082019050919050565b60006020820190508181036000830152612ac181612a85565b9050919050565b7f4552433732313a20696e76616c696420746f6b656e2049440000000000000000600082015250565b6000612afe601883611f7a565b9150612b0982612ac8565b602082019050919050565b60006020820190508181036000830152612b2d81612af1565b9050919050565b7f4552433732313a2061646472657373207a65726f206973206e6f74206120766160008201527f6c6964206f776e65720000000000000000000000000000000000000000000000602082015250565b6000612b90602983611f7a565b9150612b9b82612b34565b604082019050919050565b60006020820190508181036000830152612bbf81612b83565b9050919050565b7f6d696e74696e67206e6f7420656e61626c656400000000000000000000000000600082015250565b6000612bfc601383611f7a565b9150612c0782612bc6565b602082019050919050565b60006020820190508181036000830152612c2b81612bef565b9050919050565b7f4e487b7100000000000000000000000000000000000000000000000000000000600052601160045260246000fd5b6000612c6c8261202a565b9150612c778361202a565b9250817fffffffffffffffffffffffffffffffffffffffffffffffffffffffffffffffff0483118215151615612cb057612caf612c32565b5b828202905092915050565b7f77726f6e67206d696e742076616c756500000000000000000000000000000000600082015250565b6000612cf1601083611f7a565b9150612cfc82612cbb565b602082019050919050565b60006020820190508181036000830152612d2081612ce4565b9050919050565b6000612d328261202a565b9150612d3d8361202a565b9250827fffffffffffffffffffffffffffffffffffffffffffffffffffffffffffffffff03821115612d7257612d71612c32565b5b828201905092915050565b7f736f6c64206f7574000000000000000000000000000000000000000000000000600082015250565b6000612db3600883611f7a565b9150612dbe82612d7d565b602082019050919050565b60006020820190508181036000830152612de281612da6565b9050919050565b7f657863656564206d6178207065722077616c6c65740000000000000000000000600082015250565b6000612e1f601583611f7a565b9150612e2a82612de9565b602082019050919050565b60006020820190508181036000830152612e4e81612e12565b9050919050565b6000612e608261202a565b91507fffffffffffffffffffffffffffffffffffffffffffffffffffffffffffffffff8203612e9257612e91612c32565b5b600182019050919050565b7f546f6b656e20646f6573206e6f74206578697374210000000000000000000000600082015250565b6000612ed3601583611f7a565b9150612ede82612e9d565b602082019050919050565b60006020820190508181036000830152612f0281612ec6565b9050919050565b600081905092915050565b60008154612f21816125a8565b612f2b8186612f09565b94506001821660008114612f465760018114612f5b57612f8e565b60ff1983168652811515820286019350612f8e565b612f648561279a565b60005b83811015612f8657815481890152600182019150602081019050612f67565b838801955050505b50505092915050565b6000612fa282611f6f565b612fac8185612f09565b9350612fbc818560208601611f8b565b80840191505092915050565b7f2e6a736f6e000000000000000000000000000000000000000000000000000000600082015250565b6000612ffe600583612f09565b915061300982612fc8565b600582019050919050565b60006130208285612f14565b915061302c8284612f97565b915061303782612ff1565b91508190509392505050565b7f4f776e61626c653a206e6577206f776e657220697320746865207a65726f206160008201527f6464726573730000000000000000000000000000000000000000000000000000602082015250565b600061309f602683611f7a565b91506130aa82613043565b604082019050919050565b600060208201905081810360008301526130ce81613092565b9050919050565b7f4f776e61626c653a2063616c6c6572206973206e6f7420746865206f776e6572600082015250565b600061310b602083611f7a565b9150613116826130d5565b602082019050919050565b6000602082019050818103600083015261313a816130fe565b9050919050565b7f4552433732313a207472616e736665722066726f6d20696e636f72726563742060008201527f6f776e6572000000000000000000000000000000000000000000000000000000602082015250565b600061319d602583611f7a565b91506131a882613141565b604082019050919050565b600060208201905081810360008301526131cc81613190565b9050919050565b7f4552433732313a207472616e7366657220746f20746865207a65726f2061646460008201527f7265737300000000000000000000000000000000000000000000000000000000602082015250565b600061322f602483611f7a565b915061323a826131d3565b604082019050919050565b6000602082019050818103600083015261325e81613222565b9050919050565b60006132708261202a565b915061327b8361202a565b92508282101561328e5761328d612c32565b5b828203905092915050565b7f4552433732313a20617070726f766520746f2063616c6c657200000000000000600082015250565b60006132cf601983611f7a565b91506132da82613299565b602082019050919050565b600060208201905081810360008301526132fe816132c2565b9050919050565b7f4552433732313a207472616e7366657220746f206e6f6e20455243373231526560008201527f63656976657220696d706c656d656e7465720000000000000000000000000000602082015250565b6000613361603283611f7a565b915061336c82613305565b604082019050919050565b6000602082019050818103600083015261339081613354565b9050919050565b7f4e487b7100000000000000000000000000000000000000000000000000000000600052601260045260246000fd5b60006133d18261202a565b91506133dc8361202a565b9250826133ec576133eb613397565b5b828204905092915050565b60006134028261202a565b915061340d8361202a565b92508261341d5761341c613397565b5b828206905092915050565b7f4e487b7100000000000000000000000000000000000000000000000000000000600052603260045260246000fd5b600081519050919050565b600082825260208201905092915050565b600061347e82613457565b6134888185613462565b9350613498818560208601611f8b565b6134a181611fbe565b840191505092915050565b60006080820190506134c160008301876120bf565b6134ce60208301866120bf565b6134db6040830185612155565b81810360608301526134ed8184613473565b905095945050505050565b60008151905061350781611f16565b92915050565b60006020828403121561352357613522611ee0565b5b6000613531848285016134f8565b91505092915050565b7f4552433732313a206d696e7420746f20746865207a65726f2061646472657373600082015250565b6000613570602083611f7a565b915061357b8261353a565b602082019050919050565b6000602082019050818103600083015261359f81613563565b9050919050565b7f4552433732313a20746f6b656e20616c7265616479206d696e74656400000000600082015250565b60006135dc601c83611f7a565b91506135e7826135a6565b602082019050919050565b6000602082019050818103600083015261360b816135cf565b905091905056fea264697066735822122044bfcbc3abe093a5b3c2df28f8ad24144d3d6e77a794b37854a613bb91ed9aa364736f6c634300080f0033",
  "linkReferences": {},
  "deployedLinkReferences": {}
}